:020000040800F2
:10000000F8430020490A0008C5030008C703000898
:10001000CB030008CF030008D30300080000000052
:10002000000000000000000000000000D7030008EE
:10003000D9030008000000000F4D0108D538000862
:10004000630A0008630A0008630A0008630A0008DC
:10005000630A0008630A0008630A0008630A0008CC
:10006000630A0008630A0008630A0008630A0008BC
:10007000630A0008630A0008630A0008630A0008AC
:10008000218B0008630A0008630A0008EF3B0008A0
:100090000D3C0008630A0008630A0008630A0008B0
:1000A000630A0008630A0008630A0008630A00087C
:1000B000630A000881090008630A0008630A00084F
:1000C000630A0008630A0008630A0008630A00085C
:1000D000630A0008A93A0008630A00083B8C00087C
:1000E000630A0008630A0008630A0008630A00083C
:1000F000630A0008630A0008630A0008630A00082C
:10010000630A0008630A0008630A0008630A00081B
:10011000630A0008630A0008630A0008630A00080B
:10012000630A0008630A0008630A0008630A0008FB
:10013000630A0008630A0008630A00085D3D0008BE
:100140007B3D0008630A0008630A0008630A000890
:10015000630A0008630A0008630A0008630A0008CB
:10016000630A0008630A0008630A0008630A0008BB
:10017000630A0008630A0008630A0008630A0008AB
:10018000630A0008630A000800F002F800F06CF847
:100190000AA090E8000C82448344AAF10107DA45E2
:1001A00001D100F061F8AFF2090EBAE80F0013F0C8
:1001B000010F18BFFB1A43F0010318470C7301002D
:1001C0002C7301000A444FF0000C10F8013B13F0AF
:1001D000070408BF10F8014B1D1108BF10F8015BA0
:1001E000641E05D010F8016B641E01F8016BF9D193
:1001F00013F0080F1EBF10F8014BAD1C0C1B09D1EA
:100200006D1E58BF01F801CBFAD505E014F8016B5B
:1002100001F8016B6D1EF9D59142D6D370470000ED
:100220000023002400250026103A28BF78C1FBD8FF
:10023000520728BF30C148BF0B607047662915F0D0
:100240003483642913F0AE84002070471FB515F085
:1002500022FB14F007F804000020002114F0BCFD7C
:10026000E0601FBD10B510BD14F000F91146FFF796
:10027000EDFF00F009F814F01EF903B4FFF7F2FFE8
:1002800003BC03F0B9FB000010B58AB000244FF4A2
:10029000A06000F0F9FBA82003F028FB00F0A6F90D
:1002A00003F022FC03F0D6FC4FF4E13003F0A6FB90
:1002B0004FF4E13008F066FC4FF4FA7003F06FFB86
:1002C00012F088FC08F0A8FB42F2CF01092000F0F0
:1002D0002BFB532140F69F7000F066FB09A80AF043
:1002E000F3FB00BF00BF00BF08F054FF044600BF8F
:1002F00000BF2C480078401C2A49087000BF00BF8E
:10030000204608F04BFF00BF00BF00BF09A8032133
:1003100000220592CDE90621089010464FF40071A5
:100320003322214BCDE90132CDE903100320002314
:100330001E4A1FA1009021480FF038F900BF00BFEE
:1003400000BF08F027FF044600BF00BF1548007833
:10035000401E1449087008460078A0B91848008863
:10036000002809DD00BF00BF204608F017FF00BFCE
:1003700000BF0BF0BBF90DE000BF00BF204608F046
:100380000DFF00BF06E000BF00BF204608F006FFDB
:1003900000BF00BF00BF09A80AF05FFE00200AB03E
:1003A00010BD000000010020900600205F30010811
:1003B0007374617274207461736B0000CC0500204B
:1003C000C4000020704700BFFEE700BFFEE700BF8B
:1003D000FEE700BFFEE77047704700000CB5002045
:1003E000019000907648006840F4803074490860BD
:1003F00000BF7348006800F4003000900198401C72
:100400000190009818B90198B0F5A04FF1D16C484F
:10041000006800F4003010B10120009001E00020DD
:1004200000900098012846D165484030006840F0AF
:1004300080506349403108606248006840F44040A1
:10044000604908605E48083000685D49083108600E
:100450000846006840F4004008600846006840F420
:10046000A05008605848091F0860081F006840F045
:100470008070091F086000BF5148006800F00070DC
:100480000028F9D040F20570504908604C48083007
:10049000006820F003004A490831086008460068F7
:1004A00040F00200086000BF45480830006800F0D6
:1004B0000C000828F8D10CBD10B54548006840F480
:1004C0007000434908603E48006840F001003C4924
:1004D000086000203A4908310860394800683D4901
:1004E0000840374908603C48091D0860081F00683B
:1004F00020F48020091F0860002031490C31086079
:10050000FFF76CFF4FF0006031498039086010BD83
:1005100070B500200022022300240221284D083556
:100520002D6805F00C0020B1042806D0082834D12D
:1005300007E02A4D2A4E356033E02A4D284E3560BB
:100540002FE01F4D2D1D2D68C5F380541C4D2D1D12
:100550002D6805F03F0154B1224DB5FBF1F5184E61
:10056000361D3668C6F3881605FB06F209E01B4DFA
:10057000B5FBF1F5124E361D3668C6F3881605FB3D
:1005800006F20F4D2D1D2D68C5F301456D1C6B0046
:10059000B2FBF3F5124E356003E0104D104E35609E
:1005A00000BF00BF064D08352D68C5F303150E4E7C
:1005B000705D0B4D2D68C540094E356070BD000063
:1005C000003802400070004008544007003C0240E0
:1005D00088ED00E0FFFFF6FE103000240024F40058
:1005E0000000002000127A00040000201CB5012148
:1005F000202000F0DDFD4FF4C060009001208DF858
:10060000040000208DF806008DF8070003208DF807
:1006100005006946044800F02DFB4FF4C061024814
:1006200000F0A4FB1CBD00000014024000B59BB00C
:100630009A48B0F900209AA102A813F077FA02A80C
:1006400010210B46C822CDE9001096211E2008F08B
:10065000B0F99248B0F9022096A102A813F066FA08
:1006600002A810210B46C822CDE90010AA211E20A5
:1006700008F09FF98948B0F9042093A102A813F06B
:1006800055FA02A810210B46C822CDE90010BE2160
:100690001E2008F08EF98148B0F906208FA102A82B
:1006A00013F044FA02A810210B46C822CDE900102D
:1006B000D2211E2008F07DF91BB000BD00B52DED44
:1006C000088B87B08A4890ED100A10EE101A084681
:1006D00015F070F841EC180B864890ED000A10EE0A
:1006E000101A084615F066F841EC190B824890ED97
:1006F000100A10EE101A084615F05CF841EC1A0BBF
:100700007E4890ED000A10EE101A084615F052F8D7
:1007100041EC1B0B8DED048B8DED029B8DED00AB41
:1007200053EC1B2B76A013F0F5F906A80821322311
:100730000022CDE900101146104610F0D2FE07B09D
:10074000BDEC088B00BD30B503461C788C545D7839
:10075000541C0D559D78941C0D55DD78D41C0D55F9
:1007600030BD11B52DED020B04460A2C00DC04B996
:100770001EBD0B2C43D2DFE804F042060C12181EFB
:10078000242A30363C00012266496846FFF7DBFF29
:1007900035E0052263496846FFF7D5FF2FE00922BF
:1007A00060496846FFF7CFFF29E00D225D496846A2
:1007B000FFF7C9FF23E011225A496846FFF7C3FF3C
:1007C0001DE0152257496846FFF7BDFF17E01922C3
:1007D00054496846FFF7B7FF11E01D2251496846AA
:1007E000FFF7B1FF0BE021224E496846FFF7ABFF50
:1007F00005E025224B496846FFF7A5FF00BF00BF73
:1008000000BFB5E701460A2900DC09B9002070479E
:100810002420444A10700B293CD2DFE801F03B064B
:100820000B10151A1F24292F350005203D4A507141
:100830000620ECE709203B4A50720A20E7E70D202A
:10084000384A50730E20E2E71120364A50741220C5
:10085000DDE71520334A50751620D8E71920314AB4
:1008600050761A20D3E71D202E4A50771E20CEE75F
:1008700021202C4A82F821002220C8E72520294A7D
:1008800082F825002620C2E72920264A82F829007E
:100890002A20BCE700BF0020B9E700007432002026
:1008A00052435F43746C2E72632E6368303A202586
:1008B0003564000052435F43746C2E72632E63688C
:1008C000313A20253564000052435F43746C2E7228
:1008D000632E6368323A20253564000052435F433B
:1008E000746C2E72632E6368333A202535640000E1
:1008F000E4310020F40100209C310020FC010020A4
:100900004125362E33660D0A4225362E33660D0AF2
:100910004325362E33660D0A4425362E33660D0ADE
:1009200000000000900E00207FB505460C46012116
:10093000022000F086FC0295ADF804400020ADF8DE
:100940000600ADF80C0001A9164802F00CFA0122CD
:100950001146144802F0A8FE0121124802F08CFA58
:100960001D208DF8000000208DF8010002208DF878
:10097000020001208DF80300684600F08AF87FBD70
:1009800010B50AF037F90121064802F0A4FE01284B
:1009900001D112F09FFA0121024802F0ADFE0AF0E7
:1009A0003AF910BD0004004030B58BB005460C4646
:1009B0000121042000F045FC0121022000F0F8FB99
:1009C000022206211D4800F0E0F940200990022093
:1009D0008DF8280003208DF8290000208DF82A00CA
:1009E00001208DF82B0009A9144800F043F9079560
:1009F000ADF818400020ADF81A00ADF8200006A9A7
:100A00000F4802F0B0F97020ADF804000120ADF8F5
:100A100006000220ADF8100001A9094802F038FADA
:100A20000821074802F0C1FB0121064802F006FA3E
:100A30000121034802F020FA0BB030BD000402404F
:100A4000000800400020004009488047094800474E
:100A5000FEE7FEE7FEE7FEE7FEE7FEE7FEE7FEE76E
:100A6000FEE7FEE704480549054A064B70470000CB
:100A7000B904000889010008F83D0020F84300206F
:100A8000F83F0020F83F002032490143324A11600C
:100A9000704770B5002100230F22C4781CB32E4C80
:100AA000246804F4E064C4F5E064C4F30721C1F1F0
:100AB0000404E3B20A4144789C40E1B284781440D3
:100AC00021430C07210E254C05786155047804F06C
:100AD0001F050124AC4005786D11AD0005F1E0253E
:100AE000C5F8004109E0047804F01F050124AC407A
:100AF0001B4D0678761145F8264070BD194A0A400C
:100B00000243154B1B1F1A60704739B1124A121D60
:100B100012680243104B1B1D1A6006E00E4A121D9C
:100B2000126882430C4B1B1D1A607047042808D1C1
:100B30004FF0E021096941F004014FF0E02211611A
:100B400007E04FF0E021096921F004014FF0E022B5
:100B5000116170470000FA050CED00E000E400E0D0
:100B600080E100E080FFFF1F10B5044698488442F2
:100B700008D10121084600F086FB0021012000F089
:100B800082FB76E09348844208D10121022000F0E4
:100B90007AFB0021022000F076FB6AE08E48844256
:100BA00008D10121042000F06EFB0021042000F098
:100BB0006AFB5EE08948844208D10121082000F0E8
:100BC00062FB0021082000F05EFB52E08448844272
:100BD00008D10121102000F056FB0021102000F068
:100BE00052FB46E07F48844208D10121202000F0DA
:100BF0004AFB0021202000F046FB3AE07A4884427C
:100C000008D10121402000F03EFB0021402000F0EF
:100C10003AFB2EE07548844208D10121802000F083
:100C200032FB0021802000F02EFB22E0704884423D
:100C300008D10121801500F026FB0021A01500F04D
:100C400022FB16E06B48844208D10121401500F0D8
:100C50001AFB0021601500F016FB0AE0664884428A
:100C600007D10121001500F00EFB0021201500F036
:100C70000AFB10BDF0B50A4600210023002400BF86
:100C80003DE0012505FA01F3156805EA03049C42DD
:100C900034D105684F000326BE40B5430560157981
:100CA0004E00B5400668354305601579012D02D028
:100CB0001579022D16D185684F000326BE40B54335
:100CC000856055794E00B540866835438560456836
:100CD00001268E40B5434560456896798E40B6B290
:100CE00035434560C5684F000326BE40B543C56027
:100CF000D5794E00B540C6683543C560491C1029FA
:100D0000BFD3F0BD4FF6FF71016000210171417149
:100D10008171C171704708B54FF480320092009A1A
:100D20000A430092009AC261C161009AC261C2691D
:100D30000092C269009208BD0246002013690B4070
:100D40000BB1012000E0002070470146086980B225
:100D500070470246002053690B400BB1012000E0B0
:100D6000002070470146486980B270470183704790
:100D7000418370470AB1018300E0418370474161BC
:100D8000704742694A4042617047F0B50023002431
:100D90004D07ED0E02FA05F3CE1000F1200555F8CF
:100DA00026504E07F70E0F26BE40B543CF1000F178
:100DB000200646F82750CE1000F1200555F82650A1
:100DC00045EA0304CE1000F1200545F82640F0BDA9
:100DD000000002400004024000080240000C0240F3
:100DE000001002400014024000180240001C0240A3
:100DF000002002400024024000280240F948006818
:100E000040F00100F74908600020F6490831086009
:100E1000F4480068F4490840F2490860F348091DA5
:100E20000860F348EF4984310860F0481038091D24
:100E30000860EC48006820F48020EA49086000203F
:100E4000E8490C310860E7498C310860704700219F
:100E5000E44A921C117011460870704710B50146A3
:100E60000022002300204A11012A02D1DD4C236810
:100E700008E0022A03D1DB4C7034236802E0D94C2D
:100E80007434236801F01F02012494401C400CB10B
:100E9000012000E0002010BD38B5002000900024A3
:100EA000002500BF3120FFF7D9FF05460098401C00
:100EB00000900098B0F5A04F01D0002DF2D0312065
:100EC000FFF7CCFF08B1012400E00024204638BD24
:100ED00001460020C34A106820F0F80040EAC10033
:100EE00010607047C349086070470021BD4A7032E6
:100EF00011701170012802D004280AD104E00121E8
:100F0000B84A7032117005E00521B64A703211708E
:100F100000E000BF00BF7047B7490860704770B578
:100F2000049C41EA82150126C6EB530645EA0645B4
:100F3000054345EA0465AB4E361D356070BDAD49CD
:100F400008667047820142EA0172A64B84331A6038
:100F50007047A8498866704710B5830143EA01636A
:100F600043EA02739F4C8834236010BDA14908678F
:100F70007047A049C864704702460020994B083367
:100F8000186820F0EC6042EA01031843954B0833DF
:100F90001860704702460020924B0833186820F012
:100FA000784042EA010318438E4B083318607047BB
:100FB000014600208B4A0832106820F003000843E5
:100FC0001060704787480830006800F00C007047D8
:100FD00001460020834A0832106820F0F0000843E0
:100FE00010607047014600207E4A0832106820F4E5
:100FF000E05008431060704701460020794A0832EB
:10100000106820F4604040EAC10010607047F0B5FD
:10101000002100220024022500260223714F0837F8
:101020003F6807F00C0121B1042905D0082937D108
:1010300005E0724F076036E0714F076033E0694F9B
:101040003F1D3F68C7F38056664F3F1D3F6807F05E
:101050003F036EB16A4FB7FBF3F7DFF888C10CF1BD
:10106000040CDCF800C0CCF3881C07FB0CF40CE08B
:10107000624FB7FBF3F7DFF86CC10CF1040CDCF83E
:1010800000C0CCF3881C07FB0CF4564F3F1D3F6893
:10109000C7F301477F1C7D00B4FBF5F7076002E052
:1010A000564F076000BF00BF4E4F08373F6807F03C
:1010B000F0010909534F7A5C0768D7404760494FF0
:1010C00008373F6807F4E051890A4E4F7A5C476859
:1010D000D7408760434F08373F6807F46041490BAA
:1010E000484F7A5C4768D740C760F0BD002100F4E4
:1010F0004072B2F5407F0AD13A4A0832116821F4B1
:10110000F811414A02401143364A08321160354A0B
:1011100070321268C0F30B031A43324B70331A60FB
:101120007047354944390860704733494039086091
:10113000704736490860704701460020294A8C32C2
:10114000106820F01F004A1E1043264A8C3210609F
:10115000704701460020234A8C32106820F4F85072
:101160004A1E40EA02201F4A8C3210607047014636
:1011700000201C4A8C32106820F440100843106094
:10118000704701460020174A8C32106820F4400056
:1011900008431060704701460020124A8C321068E4
:1011A00020F44030084310607047194908607047C8
:1011B00039B10C4A3032126802430A4B30331A609C
:1011C00006E0084A303212688243064B30331A6018
:1011D0007047F9B1034A343212680243014B343389
:1011E0001A601CE000380240FFFFF6EA10300024CD
:1011F0000030002000004742800E47420024F400E7
:1012000000127A0014000020FFFCFF0F5C0147422F
:10121000E01147428F4A126882438E4B1A60704732
:1012200039B18C4A121D126802438A4B1B1D1A6089
:1012300006E0884A121D12688243864B1B1D1A6005
:10124000704739B1834A0C3212680243814B0C3328
:101250001A6006E07F4A0C32126882437D4B0C33E1
:101260001A60704739B17B4A103212680243794BD9
:1012700010331A6006E0774A103212688243754BC9
:1012800010331A60704739B1724A243A1268024327
:10129000704B243B1A6006E06E4A243A126882437F
:1012A0006C4B243B1A60704739B16A4A203A126885
:1012B0000243684B203B1A6006E0664A203A1268F7
:1012C0008243644B203B1A60704739B1614A1C3A33
:1012D000126802435F4B1C3B1A6006E05D4A1C3AF1
:1012E000126882435B4B1C3B1A60704739B1594A04
:1012F000143A12680243574B143B1A6006E0554AF1
:10130000143A12688243534B143B1A60704739B148
:10131000504A103A126802434E4B103B1A6006E0E6
:101320004C4A103A126882434A4B103B1A6070478D
:1013300039B1484A1C3212680243464B1C331A60CA
:1013400006E0444A1C3212688243424B1C331A6046
:10135000704739B13F4A2032126802433D4B203377
:101360001A6006E03B4A203212688243394B203330
:101370001A60704739B1374A243212680243354B3C
:1013800024331A6006E0334A243212688243314B18
:1013900024331A60704739B12E4A2C321268024346
:1013A0002C4B2C331A6006E02A4A2C3212688243F6
:1013B000284B2C331A60704739B1264A30321268F4
:1013C0000243244B30331A6006E0224A303212685E
:1013D0008243204B30331A607047012808D11D49E1
:1013E0003C31096841F008011A4A3C32116007E0BB
:1013F00018493C31096821F00801164A3C32116055
:10140000704739B1134A273A12780243114B273BF0
:101410001A7006E00F4A273A127882430D4B273B99
:101420001A7070470B484030006840F080700949DE
:1014300040310860704701460020064A283A126889
:101440000A400AB1012000E0002070470149263916
:10145000087070473438024010B50446FA48844298
:1014600008D101211020FFF752FF00211020FFF7C3
:101470004EFF57E0F548844209D101214804FFF7A7
:1014800035FF00214FF40030FFF730FF4AE0F0480D
:10149000844209D101218804FFF728FF00214FF47D
:1014A0008020FFF723FF3DE0EA48844209D1012173
:1014B000C804FFF71BFF00214FF40020FFF716FFC1
:1014C00030E0E548844209D101210805FFF70EFF0D
:1014D00000214FF48010FFF709FF23E0DF4884422A
:1014E00008D101212020FFF712FF00212020FFF763
:1014F0000EFF17E0DA48844209D101218807FFF77F
:10150000F5FE00214FF08040FFF7F0FE0AE0D548DD
:10151000844207D101214005FFF7E8FE0021600564
:10152000FFF7E4FE10BD2DE9FF4705460E460024F7
:10153000A14600BFA046B08900B100BF2C8A24F4A8
:101540004054F08804432C82AC8941F20C608443FF
:10155000B08831890843718908430443AC81AC8A5F
:1015600024F44074B0890443AC826846FFF74FFD11
:10157000B548854202D0B948854202D1DDF80C90C9
:1015800001E0DDF80890A88900F4004040B109EBC3
:10159000C90000EB091031684900B0FBF1F707E022
:1015A00009EBC90000EB091031688900B0FBF1F7C5
:1015B0006420B7FBF0F004012009642101FB1078DE
:1015C000A88900F4004040B1322000EBC800B0FB15
:1015D000F1F000F00700044308E0322000EB0810AF
:1015E0006421B0FBF1F000F00F0004432C81BDE852
:1015F000FF874FF41651016000218180C180018175
:101600000C21418100218181704710B502460020E4
:10161000108A20F470600B884C8823438C88234305
:10162000CC8823431843108210BD002101804180E3
:101630008180C180704721B1828942F40052828149
:1016400004E082894DF6FF731A4082817047028B55
:1016500002F47F420283028B0A430283704721B166
:10166000828942F40042828103E08289C2F30E0241
:101670008281704721B1828A42F40062828204E052
:10168000828A4FF2FF731A4082827047C1F30802C8
:101690008280704701468888C0F308007047028A3C
:1016A0004FF6F0731A400282028A0A4302827047A0
:1016B00021B1828942F00202828104E082894FF6E0
:1016C000FD731A408281704782894FF2FF731A407E
:1016D000828182890A4382817047028A4FF6DF73D2
:1016E0001A400282028A0A430282704721B1028AAA
:1016F00042F48042028204E0028A4BF6FF731A40F1
:1017000002827047818941F001018181704721B1D6
:10171000828A42F00802828204E0828A4FF6F773DE
:101720001A4082827047028BD2B20283028B42EA55
:1017300001220283704721B1828A42F02002828214
:1017400004E0828A4FF6DF731A408282704721B12B
:10175000828A42F01002828204E0828A4FF6EF739E
:101760001A4082827047828A4FF6FB731A40828247
:10177000828A0A438282704721B1828A42F0020241
:10178000828204E0828A4FF6FD731A40828270479B
:101790001AB1838A0B43838202E0838A8B4383825C
:1017A0007047F0B50346002400260025002040F6CF
:1017B0006A17B94200D100BF1846C1F3421401F0C4
:1017C0001F06012707FA06F5012C01D10C3004E0B1
:1017D000022C01D1103000E014301AB107682F43F9
:1017E000076002E00768AF430760F0BD02460020D3
:1017F000B1F5007F00D100BF13880B400BB1012071
:1018000000E00020704701F40072B2F5007F00D1C3
:1018100000BFCA430280704770B50246002400230F
:101820000025002040F66A16B14200D100BFC1F386
:10183000421501F01F03012606FA03F3012D13D10F
:101840009689334017E0000000100140004400403A
:1018500000480040004C004000500040001401408F
:1018600000780040007C0040022D02D1168A3340EF
:1018700001E0968A33400C12012606FA04F4168819
:10188000344013B10CB1012000E0002070BD10B550
:101890000022002340F66A14A14200D100BF0A12C0
:1018A00001249440A3B2DC43048010BD10B504466B
:1018B000FE48844209D101214806FFF717FD0021A7
:1018C0004FF00070FFF712FD08E001218806FFF7D6
:1018D0000DFD00214FF08060FFF708FD10BD30B511
:1018E000024600200023146824F0020414601468E7
:1018F00044F00104146000E05B1C546804F001042F
:101900001CB94FF6FF74A342F6D1546804F00104E9
:101910000CB900206CE08C79012C04D1146844F0DF
:101920008004146003E0146824F080041460CC790F
:10193000012C04D1146844F04004146003E01468DE
:1019400024F0400414600C7A012C04D1146844F093
:101950002004146003E0146824F0200414604C7A1E
:10196000012C04D1146844F01004146003E01468DE
:1019700024F0100414608C7A012C04D1146844F013
:101980000804146003E0146824F008041460CC7A9E
:10199000012C04D1146844F00404146003E01468BA
:1019A00024F0040414608C78A407CD7844EA05641C
:1019B0000D7944EA05444D7944EA05540D886D1EBD
:1019C0002C43D461146824F001041460002300E067
:1019D0005B1C546804F001041CB14FF6FF74A34271
:1019E000F6D1546804F001040CB1002000E001209D
:1019F00030BD10B50021837A012202FA03F1AC4A0E
:101A0000126842F00102AA4B1A60A94A1C321268FD
:101A10008A43A74B1C331A60027BCAB9A44A0C3212
:101A200012688A43A24B0C331A604288C38842EA88
:101A300003439F4A4032847A42F8343002888388D4
:101A400042EA03439A4A4032847A02EBC40253606A
:101A5000027B012A19D1964A0C3212680A43944B30
:101A60000C331A604288038842EA0343904A4032AA
:101A7000847A42F83430C288838842EA03438C4A2D
:101A80004032847A02EBC4025360C27A3AB9884A7F
:101A9000121D12688A43864B1B1D1A6006E0844A99
:101AA000121D12680A43824B1B1D1A60028932B94B
:101AB0007F4A143212688A437D4B14331A600289BC
:101AC000012A06D17A4A143212680A43784B143339
:101AD0001A60427B012A06D1754A1C3212680A43F9
:101AE000734B1C331A60724A126822F00102704B69
:101AF0001A6010BD00218171C17101724172817241
:101B0000C1728170C17003210171022141710121F3
:101B1000018070476649096841F00101644A11601B
:101B20001146096843F60E729143614A11601146ED
:101B3000096841EA002111601146096821F001019C
:101B40001160704721B1026842F48032026003E004
:101B5000026822F4803202607047E1B1026842F00C
:101B6000800202604FF4C272125842F480734FF444
:101B7000C27213504FF4CA72125842F480734FF479
:101B8000CA7213504FF4D272125842F480734FF459
:101B9000D27213501BE0026822F0800202604FF400
:101BA000C272125822F480734FF4C27213504FF471
:101BB000CA72125822F480734FF4CA7213504FF451
:101BC000D272125822F480734FF4D27213507047BD
:101BD00010B502460020936803F08063B3F1806F74
:101BE00000D110E0936803F00063B3F1006F01D1FE
:101BF000012008E0936803F08053B3F1805F01D1C6
:101C0000022000E00420042879D002F5C07303EB21
:101C100000131B6803F0010402F5C07303EB00130B
:101C20001C600B7A7BB94B7A0C8843EA445302F56B
:101C3000C07404EB00142468234302F5C07404EB61
:101C40000014236010E00B7A4C6843EAC4034C7A1A
:101C5000234302F5C07404EB00142468234302F507
:101C6000C07404EB001423608B7A03F00F038B72B3
:101C700002F5C07303EB00135B6823F00F0402F559
:101C8000C07303EB00135C6002F5C07303EB001339
:101C90005B688C7A234302F5C07404EB0014636024
:101CA0008B7B1C064B7B44EA034403E0006400404A
:101CB000006600400B7B44EA0323CC7A234302F501
:101CC000C07404EB0014A3608B7C1C064B7C44EABC
:101CD00003440B7C44EA0323CC7B234302F5C0740A
:101CE00004EB0014E36002F5C07303EB00131B6800
:101CF00043F0010402F5C07303EB00131C6010BD38
:101D000010B50246002321B1012907D002290FD1C5
:101D100009E09068F94C00EA04030BE09068F84C85
:101D200000EA040306E09068F64C00EA040301E0D0
:101D3000002300BF00BFF44C181BA34216D007DCE1
:101D400083B16FF08060184470B1022818D111E09F
:101D5000B0F5007F10D0ED4C204448B1B0F5003F05
:101D60000ED10BE002230DE000230BE0002309E07D
:101D7000002307E0012305E0012303E0012301E044
:101D8000002300BF00BFD8B210BD21B1012907D088
:101D900002290FD109E0826842F0800282600AE0E5
:101DA000826842F40042826005E0826842F40002E8
:101DB000826000E000BF00BF704710B500F5D87327
:101DC00003EB01131B6803F004031372137A53B976
:101DD00000F5D87303EB01131B6840F2FF7404EAAB
:101DE0005353136009E000F5D87303EB01131B682C
:101DF0006FF0604404EAD303536000F5D87303EB3B
:101E000001131B6803F00203537200F5D87303EB50
:101E100001135B6803F00F03937200F5D87303EBB3
:101E200001135B681B0AD37400F5D87303EB01132D
:101E30009B68D37200F5D87303EB01139B681C0AEF
:101E4000147300F5D87303EB01139B681C0C5473D7
:101E500000F5D87303EB01139B681B0E937300F519
:101E6000D87303EB0113DB68D37300F5D87303EB6E
:101E70000113DB681C0A147400F5D87303EB01131B
:101E8000DB681C0C547400F5D87303EB0113DB689A
:101E90001B0E937421B9C36843F02003C36003E0B1
:101EA000036943F02003036110BD21B9C26842F009
:101EB0002002C26003E0026942F020020261704722
:101EC0000246002019B9D36803F0030006E0012997
:101ED00003D1136903F0030000E00020704710B540
:101EE00002460B4600204FF6FF71BBB9146824F080
:101EF000020444F00104146000E0491E546804F038
:101F00000304012C01D00029F7D1546804F0030424
:101F1000012C01D0002032E0012030E0012B13D150
:101F2000146824F00304146000E0491E546804F0AF
:101F300003040CB10029F8D1546804F003040CB177
:101F400000201CE001201AE0022B17D1146824F0B5
:101F5000010444F00204146000E0491E546804F0D7
:101F60000304022C01D00029F7D1546804F00304C3
:101F7000022C01D0002002E0012000E0002010BD72
:101F8000014600200A6822F0010242F002020A60C3
:101F90004A6802F00302022A00D10120704701467C
:101FA0004FF6FF7200200B6823F002030B6000E085
:101FB000521E4B6803F00203022B01D1002AF7D115
:101FC0004B6803F00203022B00D00120704701464A
:101FD00000208A6902F070007047014600208A697B
:101FE000100E7047014600208A69C2F3074070470F
:101FF0001AB143690B43436102E043698B43436178
:10200000704710B50246002001F4700343B1936994
:10201000C1F3130423400BB101202DE000202BE07D
:1020200001F0807343B15368C1F3130423400BB133
:10203000012021E000201FE001F0006343B193681C
:10204000C1F3130423400BB1012015E0002013E07D
:1020500001F0007343B1D368C1F3130423400BB103
:10206000012009E0002007E01369C1F313042340B5
:102070000BB1012000E0002010BD0022244B99424A
:1020800002D10023836111E0C1F3130201F0007358
:102090000BB1C2600AE001F080630BB1026105E0A0
:1020A00001F000630BB1826000E0426070470246BD
:1020B000002002EA01030BB1012000E0002070477C
:1020C00070B504460D46002660692840002872D08D
:1020D000B5F5807F69D01DDC082D42D006DC012DCE
:1020E0002DD0022D31D0042D7FD134E0102D3ED0E3
:1020F000202D42D0402D78D145E00000030000049F
:102100000003000800000310000100080001FFF7B1
:102110007000F030B5F5004F61D009DCB5F5007FF7
:102120004AD0B5F5806F4DD0B5F5006F5DD150E068
:10213000B5F5803F2DD0B5F5003F56D12FE0A06812
:102140005549FFF7B4FF064651E0E0680321FFF769
:10215000AEFF06464BE0E0680821FFF7A8FF064601
:1021600045E0E0681021FFF7A2FF06463FE0206946
:102170000321FFF79CFF064639E020690821FFF79D
:1021800096FF064633E020691021FFF790FF0646D0
:102190002DE060680821FFF78AFF064627E06068A7
:1021A0001021FFF784FF064621E0A0690121FFF717
:1021B0007EFF06461BE01BE0A0690221FFF777FFC8
:1021C000064614E0A0690421FFF771FF06460EE001
:1021D0000BE0A0697021FFF76AFF064607E0606820
:1021E0000421FFF764FF064601E0002600BF00E07F
:1021F0000026304670BDB1F5007F3AD00FDC2029B3
:1022000028D006DC01291CD004291DD0082940D182
:102210001DE0402921D0B1F5807F3AD126E0B1F50B
:10222000004F31D006DCB1F5806F25D0B1F5006FDD
:102230002FD124E0B1F5803F12D0B1F5003F28D175
:1022400011E0154A826025E00822C26022E01022D7
:10225000C2601FE0082202611CE01022026119E046
:102260000822426016E01022426013E0042242601D
:1022700010E0042242600DE0042242600AE00022E5
:1022800082610422426005E00022826104224260F1
:1022900000E000BF00BF704701010100016821F0AC
:1022A000010101600021016041608160C160016144
:1022B00021214161DB49884204D13D21D94A103AAC
:1022C00091608CE0D7491831884205D14FF4746190
:1022D000D44A103A916082E0D2493031884205D127
:1022E0004FF47411CF4A103A916078E0CD494831EB
:1022F000884205D14FF07461CA4A103A91606EE08D
:10230000C8496031884204D1C749C64A103AD160F1
:1023100065E0C4497831884204D1C449C14A103AC1
:10232000D1605CE0BF499031884204D1C049BD4AC8
:10233000103AD16053E0BB49A831884205D14FF033
:102340003D51B84A103AD16049E0BA49884204D1B7
:102350003D21B84A083A116041E0B6491831884237
:1023600005D14FF47461B34A083A116037E0B149BE
:102370003031884205D14FF47411AE4A083A1160E9
:102380002DE0AC494831884205D14FF07461A94A2B
:10239000083A116023E0A7496031884204D1A2497C
:1023A000A44A121F11601AE0A2497831884204D170
:1023B0009E49A04A121F116011E09E499031884247
:1023C00004D19B499B4A121F116008E09949A8312A
:1023D000884204D14FF03D51964A121F1160704758
:1023E00010B500220268944B1A40CC680B68234356
:1023F0004C6923438C692343CC6923430C6A2343F0
:102400004C6A23438C6A23434C6B23438C6B2343DA
:102410001A430260426922F00702D1E90B342343D8
:102420001A4342610B6943604B6883608B68C360E9
:1024300010BD0021016041608160C16001614161A6
:102440008161C161016241628162C1620163416374
:102450008163704721B1026842F00102026003E02B
:10246000026822F001020260704721B1026842F462
:102470000042026003E0026822F4004202607047FA
:1024800021B1026842F02002026003E0026822F0FB
:10249000200202607047416070470146486880B280
:1024A000704722B1036843F40023036003E003682C
:1024B00023F4002303600161704721B1026842F4F4
:1024C0008022026003E0026822F4802202607047EA
:1024D0000AB1016100E0C1607047014600200A684E
:1024E00002F400220AB1012000E0002070470146FA
:1024F00000200A6802F001020AB1012000E0002079
:102500007047014600204A6902F03800704730B534
:1025100003460A4600200024464DAB4202D2414900
:10252000103901E04349103902F000550DB14C68F3
:1025300000E00C68414D2C4004EA02050DB1012079
:1025400000E0002030BD02463A4B9A4202D23548A4
:10255000103801E03748103801F000531BB1374BF9
:102560000B40C36002E0354B0B408360704710B5F1
:1025700001F080034BB122B1436943F08003436112
:1025800003E0436923F08003436180290BD02AB123
:10259000036801F01E042343036004E0036801F0B4
:1025A0001E04A343036010BD70B502460020002442
:1025B0000025204EB24202D21A4B103B01E01D4BC7
:1025C000103B1F4E0E4036B11E2606EAD124166877
:1025D00006EA040502E0566906F0800501F000569F
:1025E0000EB15C6800E01C68144E344004EA010639
:1025F00016B10DB1012000E0002070BD02460D4B68
:102600009A4202D20748103801E00A48103801F017
:1026100000531BB1094B0B40C36002E0074B0B405A
:1026200083607047106002403D000020400F002092
:1026300000003D20106402403F801CF07D0F7D0FA4
:102640003C0F3C0F30B943F2DB028100A1F1C041E5
:102650000A6005E043F2D2028100A1F1C0410A60A4
:102660006FF07042411C8900A1F1C0410A608100F5
:10267000A1F1C041C1F804217047D0E90112114312
:10268000C2681143026911434269114382691143CF
:10269000C2691143026A1143426A1143826A1143BB
:1026A000C26A1143026B114302689200A2F1C04258
:1026B0001160816808290BD101688900A1F1C0412E
:1026C000096841F0400201688900A1F1C0410A6037
:1026D000416B0968426B526841EA0211426B926891
:1026E00041EA0221426B928941EA0241426B128A1D
:1026F00041EA0251426B127D41EA0261426B9269EA
:1027000011430268521C9200A2F1C0421160C16ADA
:10271000B1F5804F1BD1816B0968826B526841EA29
:102720000211826B926841EA0221826B128A41EAAD
:102730000251826B127D41EA0261826B9269114300
:1027400002689200A2F1C042C2F8041107E06FF0E3
:10275000704201688900A1F1C041C1F804217047AD
:10276000002101600221416000218160C16001619E
:1027700041618161C16101624FF480514162490050
:1027800081620021C1620163F8494163816370473E
:1027900051B18200A2F1C042126842F001038200EE
:1027A000A2F1C042136009E08200A2F1C0421268A7
:1027B000EF4B1A408300A3F1C0431A607047102802
:1027C0000AD118214FF020421166402151664FF086
:1027D000FC319166D16610E01821E64A1160402173
:1027E0004FF02042C2F884104FF0FC31E14A083229
:1027F00011604FF02042C2F88C10704730B50021B4
:1028000000220023446844F0080485682C43C5680E
:102810002C4305692C43456944EA4524856944EA0B
:102820004531C4692468C5696D6844EA0524C569F1
:102830002D8944EA0544C5692D7B44EA0562046A92
:102840002468056A6D6844EA0524056A2D8944EA0E
:102850000544056A2D7B44EA05630468102C05D104
:102860004FF020442166A266E36608E0C14C216077
:102870004FF02044C4F88820BE4C0C34236030BD97
:1028800010210160002141608160C16001614161EE
:102890008161FC21C2691160C2695160C2699160A5
:1028A000C269D160026A1160026A5160026A916075
:1028B000026AD160704799B1102808D14FF02042C8
:1028C000126E42F004024FF020431A661DE0A94A3E
:1028D000126842F004024FF02043C3F8802014E055
:1028E000102809D14FF02042126EA14BDB1E1A4076
:1028F0004FF020431A6608E09E4A12689C4BDB1E8C
:102900001A404FF02043C3F88020704799B1102837
:1029100008D14FF02042126E42F040024FF02043A7
:102920001A661DE0934A126842F040024FF02043BD
:10293000C3F8802014E0102809D14FF02042126E15
:102940008B4B3F3B1A404FF020431A6608E0894A00
:102950001268874B3F3B1A404FF02043C3F880205A
:10296000704701460020102903D14FF02042506FDC
:1029700002E0804A14321068704718207D492031E7
:10298000086000200906C1F8A4004FF0FC30794926
:1029900028310860091D0860091D0860704701683A
:1029A00041F01001426841EA4221826841EA423125
:1029B000704A20321160C1680968C268526841EAF1
:1029C0000221C268128941EA0241C268127B41EACF
:1029D0000261684A28321160016909680269526817
:1029E00041EA02210269128941EA02410269127B2D
:1029F00041EA02615F4A2C3211604169096842690B
:102A0000526841EA02214269128941EA024142695F
:102A1000127B41EA02614FF02042C2F8B0107047C9
:102A20000021016041608160FC21C2681160C268C0
:102A30005160C2689160C268D16002691160026928
:102A40005160026991600269D16042691160426916
:102A50005160426991604269D160704748B145490F
:102A60002031096841F004014FF02042C2F8A01063
:102A700009E04049203109683D4AD21E11404FF01B
:102A80002042C2F8A010704710B5F2B1102807D14B
:102A90004FF020435B6E0B434FF02044636632E0FF
:102AA000B0F5807F08D1334B1B1D1B680B434FF0E3
:102AB0002044C4F8843026E02E4B24331B680B439B
:102AC0004FF02044C4F8A4301DE0102807D14FF087
:102AD00020435B6E8B434FF02044636613E0B0F5F8
:102AE000807F08D1234B1B1D1B688B434FF0204474
:102AF000C4F8843007E01F4B24331B688B434FF02E
:102B00002044C4F8A43010BD10B5024600200023B4
:102B1000102A03D14FF02044636E09E0B2F5807FA4
:102B200003D1144C241D236802E0124C2434236882
:102B300003EA01040CB1012000E0002010BD1028C0
:102B400007D14FF02042526E8A434FF020435A661D
:102B500019E0B0F5807F0FD1064A121D12688A4332
:102B60004FF02043C3F884200DE00000B058010866
:102B7000FEFF0F00800000A0234A12688A434FF036
:102B80002043C3F8A420704770B5024600200023FC
:102B900000240025102A03D14FF02046736E08E070
:102BA000B2F5807F03D1184E203E336801E0164E07
:102BB000336803EA010403EAD10514B10DB1012021
:102BC00000E0002070BD102808D14FF02042526E66
:102BD00022EAD1024FF020435A6614E0B0F5807F1C
:102BE00009D1094A203A126822EAD1024FF0204363
:102BF000C3F8842007E0044A126822EAD1024FF0A9
:102C00002043C3F8A4207047A40000A010B50446D8
:102C1000FE48844208D101210846FEF778FB0021D6
:102C20000120FEF774FB9DE0B4F1804F08D1012133
:102C30000846FEF75BFB00210120FEF757FB91E001
:102C4000F348844208D101210220FEF74FFB002106
:102C50000220FEF74BFB85E0EE48844208D10121BB
:102C60000420FEF743FB00210420FEF73FFB79E040
:102C7000E948844208D101210820FEF737FB0021F2
:102C80000820FEF733FB6DE0E448844208D10121BF
:102C90001020FEF72BFB00211020FEF727FB61E040
:102CA000DF48844208D101212020FEF71FFB0021CC
:102CB0002020FEF71BFB55E0DA48844208D10121B1
:102CC0000220FEF724FB00210220FEF720FB49E052
:102CD000D548844209D101210804FEF718FB0021E0
:102CE0004FF48030FEF713FB3CE0D048844209D11A
:102CF00001214804FEF70BFB00214FF40030FEF7E2
:102D000006FB2FE0CA48844209D101218804FEF75E
:102D1000FEFA00214FF48020FEF7F9FA22E0C548C0
:102D2000844208D101214020FEF7E0FA0021402032
:102D3000FEF7DCFA16E0C048844208D10121802069
:102D4000FEF7D4FA00218020FEF7D0FA0AE0BB4853
:102D5000844207D101218015FEF7C8FA0021A01591
:102D6000FEF7C4FA10BD00220288A84B98420ED08C
:102D7000AC4B98420BD0B0F1804F08D0A44B984296
:102D800005D0A44B984202D0A34B984204D14FF6F1
:102D90008F731A404B881A43A04B984207D0A04B20
:102DA000984204D04FF6FF431A400B891A43028021
:102DB0004B68C3620B880385944B984202D0994BB1
:102DC000984201D18B7A03860123838270474FF0AA
:102DD000FF31416000210180018141808172704793
:102DE0000185828270470A46002101884FF68F7361
:102DF000194011430180704741627047C1627047BA
:102E00000146486A70470146088D704721B1028823
:102E100042F00202028004E002884FF6FD731A407D
:102E20000280704721B1028842F00402028004E06F
:102E300002884FF6FB731A400280704721B1028866
:102E400042F08002028004E002884FF67F731A404D
:102E50000280704702884FF6F7731A40028002889A
:102E60000A430280704702884FF6FF431A400280EF
:102E700002880A430280704721B1028842F00102B1
:102E8000028004E002884FF6FE731A400280704709
:102E900070B5002400220023058C4FF6FE763540E5
:102EA0000584028C8388048B4FF68F752C40B51EE9
:102EB0002C400D882C43751E2A408D892A434D884D
:102EC0002A43524DA84202D0564DA84213D14FF684
:102ED000F7752A40CD892A434FF6FB752A408D8825
:102EE0002A434FF6FF652B404FF6FF552B400D8AC6
:102EF0002B434D8A2B43838004838D684563028472
:102F000070BD70B5002400220023058C4FF6EF76CB
:102F100035400584028C8388048B48F6FF752C406D
:102F20004FF6FF452C400D884FF6FF7606EA052543
:102F30002C434FF6DF752A408D8906EA05152A4392
:102F40004D8806EA05152A43304DA84202D0354D7A
:102F5000A8421DD14FF67F752A40CD894FF6FF76E6
:102F600006EA05152A434FF6BF752A408D8806EA02
:102F700005152A434FF6FF352B404FF2FF752B40C6
:102F80000D8A06EA85052B434D8A06EA85052B4303
:102F9000838004838D688563028470BD70B50024CE
:102FA00000220023058C4FF6FF6635400584028C15
:102FB0008388848B4FF68F752C404FF6FC752C4020
:102FC0000D882C434FF6FF552A408D894FF6FF762A
:102FD00006EA05252A434D8806EA05252A430B4DB6
:102FE000A84202D00F4DA84238D14FF2FF752A40B7
:102FF000CD894FF6FF7606EA05252A434FF6FF35C1
:103000002A408D8806EA05252A4319E00000014080
:103010000004004000080040000C00400010004088
:103020000014004000040140004001400044014001
:103030000048014000180040001C004000200040F3
:103040004EF6FF752B404DF6FF752B400D8A06EAB4
:1030500005152B434D8A06EA05152B43838084838F
:103060008D68C563028470BD70B500220023002402
:10307000058C4EF6FF7635400584038C8488828B60
:1030800048F6FF752A404FF6FF452A400D884FF657
:10309000FF7606EA05252A434DF6FF752B408D89FC
:1030A00006EA05352B434D8806EA05352B43FE4DD0
:1030B000A84202D0FD4DA84208D14BF6FF752C4026
:1030C0000D8A4FF6FF7606EA85152C4384808283AD
:1030D0008D680564038470BD00210180418081807A
:1030E00081608181C18101824182704770B5034650
:1030F000002000241846183001258D40ACB21D8CEC
:10310000A5431D8409B108290AD100EB61000568B7
:103110004FF68F76354005600568154305600FE072
:103120000D1FC5F34E052844056848F6FF76354067
:10313000056005684FF6FF7606EA0226354305600E
:1031400070BD4163704781637047C163704701641C
:1031500070470A460021018B4FF68F7319401143C7
:10316000018370470A460021018B48F6FF7319401E
:103170004FF6FF7303EA02231943018370470A469F
:103180000021818B4FF68F73194011438183704763
:103190000A460021818B48F6FF7319404FF6FF73F2
:1031A00003EA02231943818370470A460021018BF9
:1031B0004FF6F77319401143018370470A46002107
:1031C000018B4FF2FF7319404FF6FF7303EA02239E
:1031D0001943018370470A460021818B4FF6F7732C
:1031E00019401143818370470A460021818B4FF2B9
:1031F000FF7319404FF6FF7303EA022319438183DB
:1032000070470A460021018B4FF6FB7319401143AA
:10321000018370470A460021018B4FF6FF331940A6
:103220004FF6FF7303EA02231943018370470A46EE
:103230000021818B4FF6FB73194011438183704746
:103240000A460021818B4FF6FF3319404FF6FF737A
:1032500003EA02231943818370470A460021018B48
:103260004FF67F7319401143018370470A460021CE
:10327000018BC1F30E014FF6FF7303EA02231943DA
:10328000018370470A460021818B4FF67F731940F6
:103290001143818370470A460021818BC1F30E01DF
:1032A0004FF6FF7303EA02231943818370470A46EE
:1032B0000021018C4FF6FD731940114301847047C2
:1032C0000A460021018C4FF6F7731940114301841F
:1032D00070470A460021018C4FF6DF7319404FF604
:1032E000FF7303EA02131943018470470A46002161
:1032F000018C4FF67F7319404FF6FF7303EA0213F8
:103300001943018470470A460021018C4FF6FF5390
:1033100019404FF6FF7303EA0223194301847047F3
:103320000A460021018C4FF2FF7319404FF6FF73DC
:1033300003EA02231943018470470A460021018CE5
:103340004DF6FF7319404FF6FF7303EA023319433A
:103350000184704730B5002301248C40A3B2048C53
:103360009C430484048C02FA01F5ADB22C4304841E
:1033700030BD30B5002304248C40A3B2048C9C43A0
:103380000484048C02FA01F5ADB22C43048430BDF0
:10339000828B4FF2FF331A408283828B4FF6FF738A
:1033A00003EA01231A4382837047F0B50C461546A1
:1033B000002100220026078C4EF6FF7C07EA0C074E
:1033C0000784818B028C4FF6FF7707EA043640F6BC
:1033D000FF4739404FF6FF7707EA052739434FF695
:1033E000FF7707EA0337394345F6FF773A4046F45B
:1033F00080573A4381830284F0BD828B4FF6F3738A
:103400001A408283828B0A4382837047F0B50C4650
:103410001546002100220026078C4FF6FF6C07EAB4
:103420000C070784818B028C4FF6FF7707EA04268E
:103430004FF60C7739404FF6FF7707EA03172F4313
:1034400039434FF2FF573A4046F480773A4381833D
:103450000284F0BD028B4FF2FF331A400283028BCD
:103460004FF6FF7303EA01231A4302837047F0B556
:103470000C461546002100220026078C4FF6EF7CF3
:1034800007EA0C070784018B028C4FF6FF7707EAE7
:10349000041640F6FF4739404FF6FF7707EA033737
:1034A00039434FF6FF7703E000000140000401407C
:1034B00007EA052739434FF65F773A4046F0100791
:1034C0003A4301830284F0BD028B4FF6F3731A4036
:1034D0000283028B0A4302837047F0B50C461546FF
:1034E00000210022068C4FF6FE773E400684018BB9
:1034F000028C4FF60C7631407E1C06EA03162E43F2
:1035000031434FF6F576324044F0010632430183F1
:103510000284F0BD70B505460C46208850B9238959
:10352000A28861882846FFF7D8FFE1882846FFF780
:10353000CBFF25E0208804280AD12389A28861884E
:103540002846FFF794FFE1882846FFF783FF17E03E
:10355000208808280AD12389A28861882846FFF795
:1035600055FFE1882846FFF748FF09E02389A28834
:1035700061882846FFF719FFE1882846FFF708FF12
:1035800070BD002101804180012181800021C18026
:10359000018170472DE9F04105460C4600260127C0
:1035A000608808B9022600E00026A088012801D121
:1035B000022700E001272088A0B92389A28861881A
:1035C0002846FFF78AFFE1882846FFF77DFF238919
:1035D0003A4631462846FFF74AFFE1882846FFF77A
:1035E00039FF13E02389A28861882846FFF73FFF4F
:1035F000E1882846FFF72EFF23893A4631462846C0
:10360000FFF76BFFE1882846FFF75EFFBDE8F0811A
:103610000146486B70470146886B70470146C86B8E
:1036200070470146086C70470A884B881A438B889C
:103630001A43CB881A430B891A434B891A438B8947
:103640001A43A0F844207047002101804180818006
:10365000C180018141818181704731B1B0F844203E
:1036600042F40042A0F8442005E0B0F84420C2F340
:103670000E02A0F84420704721B1828842F0040273
:10368000828004E082884FF6FB731A408280704784
:1036900021B1828842F00102828004E082884FF6E4
:1036A000FE731A40828070471AB183890B4383816D
:1036B00002E083898B438381704781827047024691
:1036C0000020138A0B400BB1012000E0002070475E
:1036D000CA430282704730B502460020002300240E
:1036E000158A05EA0103958905EA010413B10CB1B5
:1036F000012000E0002030BDCA430282704741EA49
:103700000203A0F8483070471AB183890B438381C4
:1037100002E083898B438381704721B1828842F024
:103720000802828004E082884FF6F7731A40828094
:10373000704701894FF6F8721140018170470A46BF
:10374000002101894FF68F731940114301817047A1
:1037500030B504460D4629462046FFF7F0FF208984
:1037600040F00700208130BD2DE9F04104460D46B0
:1037700016461F46602D06D13B46012231462046A3
:10378000FFF775FE05E03B46012231462046FFF774
:10379000A4FE29462046FFF7D2FF208940F007000B
:1037A0002081BDE8F08130B50C4600210189C9B205
:1037B0004FF6FF7505EA032515432543294301818B
:1037C00030BD2DE9F04105460E46174698460024C7
:1037D00043463A4631462846FFF7E5FF2C894FF627
:1037E000F870044044F007044FF68F70044044F032
:1037F00070042C81BDE8F081F0B504460D461646F4
:103800001F463B46324629462046FFF7CCFF20891B
:1038100040F480402081F0BD82884FF68F731A40BB
:10382000828082880A438280704702894FF6F8734B
:103830001A40028102890A430281704702894FF6C9
:103840007F731A40028102890A4302817047F0B5F2
:103850000C4615461E460021002200230189028BDA
:10386000038C4FF6F877394021434FF6FC473A4036
:1038700040F201173A434FF6DD773B404FF6FF77B2
:1038800007EA06172F433B43018102830384F0BDFF
:1038900021B1828842F08002828004E082884FF663
:1038A0007F731A4082807047A0F850107047000064
:1038B00008B5684607F058FA08BD08B5684607F02D
:1038C0009DFA08BD38B504466A46082120460DF029
:1038D00083FD38BD10B542480078012805D107F0B6
:1038E00089F90EF005F807F096F910BD70B5044699
:1038F0006FF00400FDF71AF92046E11704EB51714F
:10390000C1F3C701374A1170E11704EB5171CD10B3
:10391000354800683549B1FBF0F04543324800684E
:103920004FF47A71B1FBF0F0314908804FF0E0209C
:10393000006940F002004FF0E0210861084645614F
:10394000006940F00100086170BD2DE9F0470746AD
:1039500000264FF0E020D0F814902248007807FBB2
:1039600000F8FFF7A5FF4FF0E020856911E04FF068
:10397000E0208469AC420CD0AC4202D2281B064441
:1039800003E0A9EB0400284406442546464500D33D
:1039900000E0ECE700BFFFF790FFBDE8F08770B5EF
:1039A00004460F480078A0B11248007888B9104842
:1039B0000088844206DB0E48008894FBF0F5284618
:1039C000FFF780FF0A48008894FBF0F100FB1140EC
:1039D00084B24FF47A7104FB01F0FFF7B6FF70BDBB
:1039E000B9000020240000208472010840420F002A
:1039F00026000020B800002000BF704710B588B036
:103A0000044601210846FDF7D3FB01211020FDF7F4
:103A100029FC072209213248FDF7B7F907220A21BC
:103A20002F48FDF7B2F94FF4C060069002208DF8E0
:103A30001C008DF81D0000208DF81E0001208DF85F
:103A40001F0006A92648FDF715F902940020ADF8DD
:103A50000C00ADF80E00ADF81000ADF814000C200D
:103A6000ADF8120002A91F48FDF75DFD01211D48B8
:103A7000FDF7E1FD40211B48FDF7C5FE012240F2A4
:103A800025511848FDF78DFE25208DF804000320F0
:103A90008DF805008DF8060001208DF8070001A8BB
:103AA000FCF7F7FF08B010BD10B507F0A3F840F21F
:103AB00025510C48FDF7B0FE48B10A498988C8B2C3
:103AC00005F002F940F225510648FDF7E0FE4FF4FB
:103AD00058710448FDF7DBFE07F09DF810BD0000AB
:103AE000000002400010014000B58BB001210846E3
:103AF000FDF75EFB01214806FDF7A3FB09220B2120
:103B00005148FDF742F909220C214F48FDF73DF9D4
:103B10004FF4C050029002208DF80C0002A94A48D0
:103B2000FDF7A8F814208DF8040002208DF8050098
:103B300001208DF806008DF8070001A8FCF7A9FF09
:103B400013208DF8040001208DF805008DF8060083
:103B50008DF8070001A8FCF79CFF3C48FDF7A6FE86
:103B600008A8FDF7C7FF00208DF826008DF8270074
:103B70008DF828008DF829008DF82A0001208DF895
:103B80002B0000208DF822008DF8230008208DF8EE
:103B9000240003208DF82500ADF8200008A92B484B
:103BA000FDF79DFE00208DF81A008DF81B00012006
:103BB0008DF81C000020ADF81000ADF81200ADF833
:103BC0001400ADF81600ADF8180001208DF81D00A6
:103BD00004A8FDF70EFF012202211C48FEF708FA97
:103BE000012211461948FEF703FA0BB000BD10B5CB
:103BF00007F000F801211548FEF762FA18B101211B
:103C00001248FEF7F8FA07F006F810BD00B585B0C7
:103C100006F0F0FF02210D48FEF752FA78B10421B8
:103C20000A48FEF7E8FA0A490848FEF726FA6A4603
:103C300000210648FEF7C1F868460EF0EAFD06F0DE
:103C4000EAFF05B000BD0000000002400064004033
:103C50000800003200B58BB001210220FDF7A8FA60
:103C600001218806FDF7EDFA09220C214F48FDF7E6
:103C70008CF809220D214D48FDF787F84FF440508C
:103C8000029002208DF80C0002A94848FCF7F2FFD0
:103C900040208DF8040001208DF805008DF8060005
:103CA0008DF8070001A8FCF7F4FE3F208DF8040012
:103CB00000208DF8050001208DF806008DF8070022
:103CC00001A8FCF7E6FE3A48FDF7F0FD08A8FDF76D
:103CD00011FF00208DF826008DF827008DF82800B0
:103CE0008DF829008DF82A0001208DF82B00002086
:103CF0008DF822008DF8230008208DF82400032081
:103D00008DF82500ADF8200008A92948FDF7E7FD4A
:103D10000E208DF81A0000208DF81B0001208DF870
:103D20001C000020ADF81000ADF81200ADF8140032
:103D3000ADF81600ADF8180001208DF81D0004A89C
:103D4000FDF757FE012202211948FEF751F9012221
:103D500011461748FEF74CF90BB000BD10B506F040
:103D600049FF01211248FEF7ABF918B101211048B3
:103D7000FEF741FA06F04FFF10BD00B585B006F022
:103D800039FF02210A48FEF79BF958B10221084881
:103D9000FEF731FA6A4600210548FEF70EF868463C
:103DA0000EF037FD06F037FF05B000BD00040240FD
:103DB0000068004001B5BDF800000090BDF80000AB
:103DC000F849088008BD01B5BDF800000090BDF8B5
:103DD0000000F449891C088008BD08B5F148801C22
:103DE00000880090BDF8000008BDEE4A10804FF03A
:103DF000D842A2F88010704710B504462046FFF75D
:103E0000D9FF0520FFF7A1FDFFF7E7FF10BDE6484A
:103E10000089E44908807047E249891C088070479E
:103E200030B5014601F01F04C1F34513CA0AE5028B
:103E300005EB43151544A8B230BD00BF011EA0F12B
:103E40000102D0B2FAD1704730B504460D46D648CB
:103E5000808849F24131884205D0D348808845F2B4
:103E60001031884214D1D0494889FFF7A3FF2012AE
:103E7000FFF7A9FFE0B2FFF7A6FFCB498889FFF75C
:103E800099FF2812FFF79FFFE8B2FFF79CFFABE016
:103E9000C548808846F6040188421DD1C248807911
:103EA000012804D1C0480088401E001B84B2BE49CE
:103EB0004889FFF77FFF2012FFF785FFE0B2FFF789
:103EC00082FFB9498889FFF775FF2812FFF77BFF4A
:103ED000E8B2FFF778FF87E0B348808841F66311C6
:103EE000884247D1B0488079A8B9AF480088401EC1
:103EF000001B84B2AC494889FFF75CFF0020FFF744
:103F000062FF0020FFF75FFF2012FFF75CFFE0B2C7
:103F1000FFF759FF16E0A4494889FFF74BFF20122D
:103F2000FFF751FFE0B2FFF74EFF9F490988491E96
:103F3000C1F30F20FFF747FF9B490978491EC8B21C
:103F4000FFF741FF98498889FFF734FF2812FFF7F0
:103F50003AFFE8B2FFF737FF93494988491EC1F39A
:103F60000F20FFF730FF90498978491EC8B2FFF74C
:103F70002AFF39E08C48808845F21051884220D1D0
:103F800089494889FFF716FF2012FFF71CFF864971
:103F90004989491C88B2FFF70DFFE0B2FFF713FF14
:103FA00081498889FFF706FF2812FFF70CFF7E4939
:103FB0008989491C88B2FFF7FDFEE8B2FFF703FFCD
:103FC00012E079488079012804D177480088401EA2
:103FD000001B84B2744948892146FFF706FF7249E5
:103FE00088892946FFF701FF30BD2DE9F0410546DC
:103FF0000E4600240027A0466B480088A84203DD37
:1040000069484088B04202DC0020BDE8F0813146BA
:104010002846FFF719FF6448808849F241318842F9
:1040200011D06148808846F6040188420BD05E4872
:10403000808845F21031884205D05B48808841F67F
:104040006311884203D12E20FFF7B4FE0DE05648DD
:10405000808845F21051884204D14FF43850FFF760
:10406000A9FE02E02220FFF7A5FE4F48808849F212
:104070002031884202D10220FFF7DFFEFFF7ADFEBC
:1040800004464948808841F66311884201D12046A0
:10409000BBE70220FFF7D1FEFFF79FFE0446424830
:1040A000808849F2413188420BD03F48808845F2F0
:1040B0001031884205D03C48808845F21051884232
:1040C0000AD10220FFF7B9FEFFF787FE8046E7B26C
:1040D0004FF6FF7000EA07273348808849F2253100
:1040E000884216D03048808844F23551884210D03A
:1040F0002D488088091F88420BD02B4880884BF2BE
:104100000551884205D0284880884CF205518842E4
:1041100001D1204679E72448808849F2413188421C
:104120000BD02148808845F21031884205D01E48C6
:10413000808845F21051884207D1E012C002B912BE
:1041400040EA411040EAE8205FE72046FFF768FEBA
:104150005BE700B51448808849F24131884211D0AC
:104160001148808846F6040188420BD00E488088AA
:1041700045F21031884205D00B48808841F6631122
:10418000884203D12920FFF715FE14E006488088F5
:1041900045F21051884209D14FF42450FFF70AFE2E
:1041A00009E000007E00006CBA0E002040F273119E
:1041B0000720FFF71AFE00BD00B5FD48808849F2D0
:1041C0004131884211D0FA48808846F6040188427D
:1041D0000BD0F748808845F21031884205D0F4486A
:1041E000808841F66311884203D12820FFF7E2FD61
:1041F0000EE0EF48808845F21051884204D14FF418
:104200002050FFF7D7FD03E000210720FFF7EDFD69
:1042100000BDF0B5054600240027E5488079012857
:104220000BD1E348808846F60401884205D0E04877
:10423000808841F66311884208D1DD488079F0B961
:10424000DB48808841F66311884218D1082D15D2C9
:10425000DFE805F00406080A0C0E101206250DE032
:1042600007250BE0042509E0052507E0012505E009
:10427000002503E0032501E0022500BF00BFCC4874
:10428000808849F24131884217D0C948808846F673
:104290000401884211D0C648808845F21031884216
:1042A0000BD0C348808845F21051884205D0C048E1
:1042B000808841F6631188427ED1082D1CD2DFE848
:1042C00005F00406090C0F12151800BF14E044F0A5
:1042D000800411E044F040040EE044F0C0040BE020
:1042E00044F0200408E044F0600405E044F0A00439
:1042F00002E044F0E00400BF00BFAD48808845F212
:104300001051884202D14FF4585700E03627A84890
:10431000808845F2103188420DD0A548808845F24A
:104320001051884207D0A248808841F66311884224
:1043300001D044F008049E48808846F60401884273
:1043400001D144F0020421463846FFF74EFD98485B
:10435000808841F6631188421DD004F0200068B1C6
:104360009348008892494988884214DA9048068820
:1043700040888F490880084646800CE08C480088B9
:104380008B494988884206DD8948068840888849E3
:104390000880084646808648808845F21051884249
:1043A00054D183494889FFF705FD0020FFF70BFD35
:1043B0007F494989491C00E077E088B2FFF7FAFCA1
:1043C0000020FFF700FD7A494989891C88B2FFF770
:1043D000F1FC77490988491EC1F30F20FFF7F3FC70
:1043E00073494989C91C88B2FFF7E4FC7049097810
:1043F000491EC8B2FFF7E7FC6D498889FFF7DAFC70
:104400000020FFF7E0FC6A498989491C88B2FFF760
:10441000D1FC0020FFF7D7FC65498989891C88B247
:10442000FFF7C8FC62494988491EC1F30F20FFF716
:10443000CAFC5F498989C91C88B2FFF7BBFC5C498B
:104440008978491EC8B2FFF7BEFC55E05849488933
:10445000FFF7B0FC0020FFF7B6FC0020FFF7B3FC2D
:1044600053490988491EC1F30F20FFF7ACFC50499E
:104470000978491EC8B2FFF7A6FC4D498889FFF7A5
:1044800099FC0020FFF79FFC0020FFF79CFC4849A7
:104490004988491EC1F30F20FFF795FC44498978EC
:1044A000491EC8B2FFF78FFC26E0082D1CD2DFE8BA
:1044B00005F004070A0D0F12151844F0300413E03C
:1044C00044F0100410E044F020040DE000BF0BE0C5
:1044D00044F0380408E044F0280405E044F01804EF
:1044E00002E044F0080400BF00BF032744F48054F6
:1044F00021463846FFF779FCF0BD30B504460D463D
:1045000029462046FFF7A0FCFFF781FC29480088D8
:104510002949088030BD70B504460D46164624482A
:10452000808849F24131884205D02148808845F28F
:104530001031884214D11E494889FFF73BFC2012F4
:10454000FFF741FCE0B2FFF73EFC19498889FFF70D
:1045500031FC2812FFF737FCE8B2FFF734FC93E098
:104560001348808845F21051884227D11049488964
:10457000FFF720FC2012FFF726FC0D494989491C52
:1045800088B2FFF717FCE0B2FFF71DFC08498889E5
:10459000FFF710FC2812FFF716FC05498989491C12
:1045A00088B2FFF707FCE8B2FFF70DFC6CE00000F3
:1045B000BA0E00202E0000208000006CFE4880888B
:1045C00041F66311884228D1FB48807920B9FA4826
:1045D0000088401E001B84B2F7494889FFF7EAFBB8
:1045E0002012FFF7F0FBE0B2FFF7EDFB2012FFF720
:1045F000EAFBE0B2FFF7E7FBEF498889FFF7DAFB58
:104600002812FFF7E0FBE8B2FFF7DDFB2812FFF707
:10461000DAFBE8B2FFF7D7FB36E0E748808846F6DA
:10462000040188421DD1E4488079012804D1E24880
:104630000088401E001B84B2DF494889FFF7BAFB9F
:104640002012FFF7C0FBE0B2FFF7BDFBDA49888913
:10465000FFF7B0FB2812FFF7B6FBE8B2FFF7B3FB9A
:1046600012E0D5488079012804D1D3480088401E43
:10467000001B84B2D04948892146FFF7B6FBCE49DA
:1046800088892946FFF7B1FBCB480089CB490880D0
:104690004FF0D840A0F8806070BD70B52DED048B50
:1046A0000446BE20FFF786FB0520FFF78CFB204663
:1046B00010F013FE41EC190B9FEDC10B53EC102BC6
:1046C00010F05AFE41EC180B10F0DAFD85B22846C6
:1046D000FFF779FB0120FFF776FBFF20FFF773FB65
:1046E0000020FFF770FB0020FFF76DFBBDEC048B93
:1046F00070BD10B50446002C66D1AF498871F0201A
:1047000008804FF4A07048800846808849F2413103
:1047100088420BD0A848808846F60401884205D01C
:10472000A548808845F2103188421AD12C20A24930
:1047300008812A2048812B2088810846808846F6F7
:104740000401884205D09C48808845F21031884297
:1047500006D14FF4A070984908804FF4F07048805B
:10476000A1E09548808845F21051884210D14FF45D
:104770003050914908814FF4285048814FF42C5013
:1047800088814FF4F07008804FF4487048808AE0C8
:104790008948808841F6631188420DD12C208649D2
:1047A00008812B2048812A2088814FF4F0700880EE
:1047B0004FF44870488076E022207F49088120200D
:1047C0004881212088816EE001207B4988714FF467
:1047D000A0700880F02048800846808849F2413166
:1047E000884205D07448808845F21031884207D14C
:1047F0002C20714908812A2048812B2088813FE0A4
:104800006D48808846F60401884207D12C206A4909
:1048100008812B2048812A20888131E066488088E1
:1048200045F21051884210D14FF43050624908814E
:104830004FF4285048814FF42C5088814FF4487031
:1048400008804FF4F07048801AE05B48808841F699
:10485000631188420DD12C20574908812A204881B4
:104860002B2088814FF4487008804FF4F070488006
:1048700006E022205049088121204881202088819B
:104880004D48808846F60401884205D04A48808811
:1048900045F21031884206D14FF4F0704649088045
:1048A0004FF4A07048800020FFF7B3FC10BD2DE945
:1048B000F04F86B004460D469046994604EB08003A
:1048C000401E86B205EB0900401E87B23A48808838
:1048D00049F24131884215D03748808845F210317D
:1048E00088420FD03448808846F60401884209D0B7
:1048F00031488079012826D12F48808841F66311FC
:10490000884220D12C494889FFF754FA2012FFF73A
:104910005AFAE0B2FFF757FA3012FFF754FAF0B242
:10492000FFF751FA24498889FFF744FA2812FFF764
:104930004AFAE8B2FFF747FA3812FFF744FAF8B23A
:10494000FFF741FAC1E01C48808841F663118842B4
:104950003DD119480088A0EB0800001B84B205EB8C
:104960000900401E1FFA80F913494889FFF722FA0F
:104970002012FFF728FAE0B2FFF725FA04EB08014E
:10498000491EC1F30F20FFF71EFA04EB0801491E70
:10499000C8B2FFF718FA08498889FFF70BFA2812FE
:1049A000FFF711FAE8B2FFF70EFA4FEA2920FFF7F6
:1049B0000AFA09F0FF0007E0BA0E00207E00006C42
:1049C0006666666666660440FFF7FDF97DE0FE48B0
:1049D000808845F21051884244D1FB494889FFF74D
:1049E000E9F92012FFF7EFF9F7494989491C88B224
:1049F000FFF7E0F9E0B2FFF7E6F9F3494989891CCE
:104A000088B2FFF7D7F93012FFF7DDF9EE4949898F
:104A1000C91C88B2FFF7CEF9F0B2FFF7D4F9EA4922
:104A20008889FFF7C7F92812FFF7CDF9E649898988
:104A3000491C88B2FFF7BEF9E8B2FFF7C4F9E249B2
:104A40008989891C88B2FFF7B5F93812FFF7BBF9DD
:104A5000DD498989C91C88B2FFF7ACF9F8B2FFF7C4
:104A6000B2F932E0D848807901280ED1AA46BB4677
:104A7000D5480088801B401E80B20190D248008833
:104A8000001B401E80B2009003E0A246B346019591
:104A900000975020059051200490522003905320FD
:104AA000029051460598FFF7A0F959460498FFF780
:104AB0009CF901990398FFF798F900990298FFF77C
:104AC00094F929462046FFF7BFF906B0BDE8F08FFC
:104AD00070B504460026BC48058840884543BA485E
:104AE000808846F60401884216D1B74880790128AB
:104AF00012D10020B44988712A2048812B20888156
:104B000000210846FFF7A0F90120AF4988712B204A
:104B100048812A20888103E000210846FFF794F9A4
:104B2000FFF775F9002602E0A8480480761CAE4223
:104B3000FAD370BD00B5A1B00020209001217A20E9
:104B4000FCF736FB01210846FCF76AFB4FF40040F6
:104B50001E9001208DF87C0000208DF87E00022040
:104B60008DF87D0001208DF87F001EA99848FCF784
:104B700081F84CF233701E9002208DF87C000020EA
:104B80008DF87E0003208DF87D0001208DF87F00D8
:104B90001EA99048FCF76EF84FF680701E90022018
:104BA0008DF87C0000208DF87E0003208DF87D00BC
:104BB00001208DF87F001EA98748FCF75BF84FF4B1
:104BC00080501E9002208DF87C0000208DF87E0021
:104BD00003208DF87D0001208DF87F001EA97F48FD
:104BE000FCF748F84FF480501E9002208DF87C00AE
:104BF00000208DF87E0003208DF87D0001208DF8C7
:104C00007F001EA97648FCF735F80C220021714878
:104C1000FCF7BBF80C2201216E48FCF7B6F80C2219
:104C200004216C48FCF7B1F80C2205216948FCF717
:104C3000ACF80C2208216748FCF7A7F80C220921E0
:104C40006448FCF7A2F80C220A216248FCF79DF8A0
:104C50000C220E215F48FCF798F80C220F215D48CA
:104C6000FCF793F80C2207215B48FCF78EF80C2226
:104C700008215948FCF789F80C2209215648FCF70D
:104C800084F80C220A215448FCF77FF80C220B21EF
:104C90005148FCF77AF80C2211464F48FCF775F89A
:104CA0000C220D214C48FCF770F80C220E214A48CA
:104CB000FCF76BF80C220F214748FCF766F80C2232
:104CC00011464648FCF761F80C2211464448FCF7AF
:104CD0005CF80F200890002009903C200A900020EA
:104CE0000B900C900D900E900920019000200290E6
:104CF000082003900020049005900690079006205D
:104D00000F9000201090119010201290002013900E
:104D100015901490169017904FF480501890002022
:104D200019904FF480401A9000201B9008A81C9006
:104D300001A81D900FA8FDF7A0FC01210620FDF79A
:104D400027FD3220FEF72BFE01210020FFF74DF852
:104D50003220FEF724FE0020FFF74EF81A49888023
:104D600008468088FF280ADB084680884FF6FF71D6
:104D7000884204D014488088B0F5134F7ED1D320E8
:104D8000FFF718F8FFF729F80F498880FFF725F893
:104D90000D498880FFF721F80B49888008468088F4
:104DA0004FF6FF7101EA002007498880FFF715F8E8
:104DB000054989880843044988800846808849F263
:104DC000413188425AD00DE0BA0E00208000006CBC
:104DD00000040240000C0240001002400014024097
:104DE00000180240BF20FEF7E5FFFEF7F6FFFE4980
:104DF0008880FEF7F2FFFC498880FEF7EEFFFA4953
:104E00008880FEF7EAFFF8498880084680884FF6D8
:104E1000FF7101EA0020F4498880FEF7DEFFF249C5
:104E200089880843F04988800846808846F604014E
:104E300088427AD0D420FEF7BDFFFEF7CEFFEA49C4
:104E40008880FEF7CAFFE8498880FEF7C6FFE6497A
:104E50008880084680884FF6FF7101EA0020E24909
:104E60008880FEF7BAFFE04989880843DE498880D8
:104E70000846808845F21031884200E055E054D061
:104E80004FF45A40FEF796FFFEF7A7FFD6498880F9
:104E90004FF45B40FEF78EFFFEF79FFFD2498880FC
:104EA000084680884FF6FF7101EA0020CE498880CD
:104EB0004FF45C40FEF77EFFFEF78FFFCA498988FA
:104EC0000843C949888008468088B0F5004F02D160
:104ED00045F210508880C448808845F210518842BD
:104EE00023D0A120FEF766FFFEF777FFBE4988803A
:104EF000FEF773FFBC498880084680884FF6FF7133
:104F000001EA0020B8498880FEF767FFB649898822
:104F10000843B54988800846808845F26171884217
:104F200003D141F66310B0498880AF48808849F2C8
:104F30004131884211D0AC48808845F21031884216
:104F40000BD0A948808845F21051884205D0A64868
:104F5000808841F6631188421DD1A448006820F082
:104F60000F004FF02041C1F81C010846D0F81C0189
:104F700020F47060C1F81C010846D0F81C0140F014
:104F80000300C1F81C010846D0F81C0140F4007071
:104F9000C1F81C0128E09448808846F60401884244
:104FA00005D0914880884CF2055188421CD18F4829
:104FB000006820F00F004FF02041C1F81C010846A6
:104FC000D0F81C0120F47060C1F81C010846D0F82C
:104FD0001C0140F00A00C1F81C010846D0F81C0171
:104FE00040F44060C1F81C017F48808849F241319B
:104FF00088427CD1CF20FEF7DDFE0020FEF7E3FEE5
:10500000C120FEF7E0FE3020FEF7DDFEED20FEF7CA
:10501000D1FE6420FEF7D7FE0320FEF7D4FE122057
:10502000FEF7D1FE8120FEF7CEFEE820FEF7C2FE9D
:105030008520FEF7C8FE1020FEF7C5FE7A20FEF799
:10504000C2FECB20FEF7B6FE3920FEF7BCFE2C20B8
:10505000FEF7B9FE0020FEF7B6FE3420FEF7B3FEE1
:105060000220FEF7B0FEF720FEF7A4FE2020FEF798
:10507000AAFEEA20FEF79EFE0020FEF7A4FE002016
:10508000FEF7A1FEC020FEF795FE1B20FEF79BFE5B
:10509000C120FEF78FFE0120FEF795FEC520FEF72A
:1050A00089FE3020FEF78FFE3020FEF78CFEC720F1
:1050B000FEF780FEB720FEF786FE3620FEF77AFE6A
:1050C0004820FEF780FE3A20FEF774FE5520FEF7DA
:1050D0007AFEB120FEF76EFE0020FEF774FE1A2065
:1050E000FEF771FEB620FEF765FE0A2000E09EE0A6
:1050F000FEF769FEA220FEF766FEF220FEF75AFEDA
:105100000020FEF760FE2620FEF754FE0120FEF789
:105110005AFEE020FEF74EFE0F20FEF754FE2A2036
:10512000FEF751FE2820FEF74EFE0820FEF74BFE4C
:105130000E20FEF748FE0820FEF745FE5420FEF73D
:1051400042FEA920FEF73FFE4320FEF73CFE0A2068
:10515000FEF739FE0F20FEF736FE0020FEF733FE85
:105160000020FEF730FE0020FEF72DFE0020FEF7A7
:105170002AFEE120FEF71EFE0020FEF724FE152089
:10518000FEF721FE1720FEF71EFE0720FEF71BFE8E
:105190001120FEF718FE0620FEF715FE2B20FEF765
:1051A00012FE5620FEF70FFE3C20FEF70CFE0520F7
:1051B000FEF709FE1020FEF706FE0F20FEF703FEA5
:1051C0003F20FEF700FE3F20FEF7FDFD0F20FEF71B
:1051D000FAFD2B20FEF7EEFD0020FEF7F4FD002087
:1051E000FEF7F1FD012003E0BA0E00201C0100A033
:1051F000FEF7E9FD3F20FEF7E6FD2A20FEF7DAFD87
:105200000020FEF7E0FD0020FEF7DDFD0020FEF7A8
:10521000DAFDEF20FEF7D7FD1120FEF7CBFD782059
:10522000FEF7BDFB2920FEF7C5FD03F01DB9FE48C2
:10523000808846F6040188427ED11120FEF7BAFD2F
:105240001420FEF7ACFBD020FEF7B4FD0720FEF7DC
:10525000BAFD4220FEF7B7FD1D20FEF7B4FDD120B8
:10526000FEF7A8FD0020FEF7AEFD1A20FEF7ABFD0D
:105270000920FEF7A8FDD220FEF79CFD0120FEF7D5
:10528000A2FD2220FEF79FFDC020FEF793FD102017
:10529000FEF799FD3B20FEF796FD0020FEF793FDFB
:1052A0000220FEF790FD1120FEF78DFDC520FEF7D0
:1052B00081FD0320FEF787FDC820FEF77BFD00205F
:1052C000FEF781FD2520FEF77EFD2120FEF77BFD08
:1052D0000520FEF778FD0020FEF775FD0A20FEF799
:1052E00072FD6520FEF76FFD2520FEF76CFD77202F
:1052F000FEF769FD5020FEF766FD0F20FEF763FD07
:105300000020FEF760FDF820FEF754FD0120FEF7B7
:105310005AFDFE20FEF74EFD0020FEF754FD022050
:10532000FEF751FD2020FEF745FD3620FEF742FD39
:105330000820FEF748FD00E02AE03A20FEF73AFD9B
:105340005520FEF740FD2B20FEF734FD0020FEF730
:105350003AFD0020FEF737FD0120FEF734FD3F2027
:10536000FEF731FD2A20FEF725FD0020FEF72BFD7C
:105370000020FEF728FD0120FEF725FDDF20FEF7C7
:1053800022FD7820FEF70BFB2920FEF713FD4CE7EA
:10539000A548808845F21031884240F07C87ED2096
:1053A000FEF708FD0120FEF70EFDFE20FEF70BFDC7
:1053B000EE20FEF7FFFCDE20FEF705FD2120FEF7C4
:1053C00002FDF120FEF7F6FC0120FEF7FCFCDF20D9
:1053D000FEF7F0FC1020FEF7F6FCC420FEF7EAFC16
:1053E0008F20FEF7F0FCC620FEF7E4FC0020FEF75D
:1053F000EAFCE220FEF7E7FCE220FEF7E4FCE22014
:10540000FEF7E1FCBF20FEF7D5FCAA20FEF7DBFC8F
:10541000B020FEF7CFFC0D20FEF7D5FC0020FEF7F4
:10542000D2FC0D20FEF7CFFC0020FEF7CCFC1120B3
:10543000FEF7C9FC0020FEF7C6FC1920FEF7C3FCEE
:105440000020FEF7C0FC2120FEF7BDFC0020FEF787
:10545000BAFC2D20FEF7B7FC0020FEF7B4FC3D207F
:10546000FEF7B1FC0020FEF7AEFC5D20FEF7ABFCC2
:105470000020FEF7A8FC5D20FEF7A5FC0020FEF74B
:10548000A2FCB120FEF796FC8020FEF79CFC0020D9
:10549000FEF799FC8B20FEF796FC0020FEF793FCAC
:1054A0009620FEF790FC0020FEF78DFCB220FEF760
:1054B00081FC0020FEF787FC0020FEF784FC022020
:1054C000FEF781FC0020FEF77EFC0320FEF77BFC4C
:1054D0000020FEF778FCB320FEF76CFC0020FEF7FE
:1054E00072FC0020FEF76FFC0020FEF76CFC002031
:1054F000FEF769FC0020FEF766FC0020FEF763FC67
:105500000020FEF760FC0020FEF75DFC0020FEF7A7
:105510005AFC0020FEF757FC0020FEF754FC002048
:10552000FEF751FC0020FEF74EFC0020FEF74BFC7E
:105530000020FEF748FC0020FEF745FC0020FEF7A7
:1055400042FC0020FEF73FFC0020FEF73CFC002060
:10555000FEF739FC0020FEF736FC0020FEF733FC96
:105560000020FEF730FC0020FEF72DFCB420FEF7F3
:1055700021FC8B20FEF727FC0020FEF724FC962060
:10558000FEF721FC0020FEF71EFCA120FEF71BFC0D
:105590000020FEF718FCB520FEF70CFC0220FEF7F9
:1055A00012FC0020FEF70FFC0320FEF70CFC00208D
:1055B000FEF709FC0420FEF706FC0020FEF703FCC2
:1055C000B620FEF7F7FB0020FEF7FDFB0020FEF7FC
:1055D000FAFBB720FEF7EEFB0020FEF7F4FB0020FD
:1055E000FEF7F1FB3F20FEF7EEFB0020FEF7EBFBA2
:1055F0005E20FEF7E8FB0020FEF7E5FB6420FEF7E7
:10560000E2FB0020FEF7DFFB8C20FEF7DCFB002036
:10561000FEF7D9FBAC20FEF7D6FB0020FEF7D3FB4C
:10562000DC20FEF7D0FB01E0BA0E00200020FEF7E0
:10563000CAFB7020FEF7C7FB0020FEF7C4FB9020DA
:10564000FEF7C1FB0020FEF7BEFBEB20FEF7BBFB25
:105650000020FEF7B8FBDC20FEF7B5FB0020FEF7CC
:10566000B2FBB820FEF7A6FB0020FEF7ACFB002043
:10567000FEF7A9FB0020FEF7A6FB0020FEF7A3FB28
:105680000020FEF7A0FB0020FEF79DFB0020FEF7A8
:105690009AFB0020FEF797FBBA20FEF78BFB242035
:1056A000FEF791FB0020FEF78EFB0020FEF78BFB40
:1056B0000020FEF788FBC120FEF77CFB2020FEF7D0
:1056C00082FB0020FEF77FFB5420FEF77CFB0020CE
:1056D000FEF779FBFF20FEF776FB0020FEF773FB59
:1056E000C220FEF767FB0A20FEF76DFB0020FEF7E5
:1056F0006AFB0420FEF767FB0020FEF764FBC32073
:10570000FEF758FB3C20FEF75EFB0020FEF75BFB3C
:105710003A20FEF758FB0020FEF755FB3920FEF734
:1057200052FB0020FEF74FFB3720FEF74CFB00201A
:10573000FEF749FB3C20FEF746FB0020FEF743FB4B
:105740003620FEF740FB0020FEF73DFB3220FEF73F
:105750003AFB0020FEF737FB2F20FEF734FB00203A
:10576000FEF731FB2C20FEF72EFB0020FEF72BFB73
:105770002920FEF728FB0020FEF725FB2620FEF758
:1057800022FB0020FEF71FFB2420FEF71CFB00205D
:10579000FEF719FB2420FEF716FB0020FEF713FB93
:1057A0002320FEF710FB0020FEF70DFB3C20FEF748
:1057B0000AFB0020FEF707FB3620FEF704FB002063
:1057C000FEF701FB3220FEF7FEFA0020FEF7FBFA9F
:1057D0002F20FEF7F8FA0020FEF7F5FA2C20FEF74E
:1057E000F2FA0020FEF7EFFA2920FEF7ECFA00208B
:1057F000FEF7E9FA2620FEF7E6FA0020FEF7E3FAC4
:105800002420FEF7E0FA0020FEF7DDFA2420FEF760
:10581000DAFA0020FEF7D7FA2320FEF7D4FA0020A8
:10582000FEF7D1FAC420FEF7C5FA6220FEF7CBFAE4
:105830000020FEF7C8FA0520FEF7C5FA0020FEF7A3
:10584000C2FA8420FEF7BFFA0020FEF7BCFAF0206F
:10585000FEF7B9FA0020FEF7B6FA1820FEF7B3FA01
:105860000020FEF7B0FAA420FEF7ADFA0020FEF704
:10587000AAFA1820FEF7A7FA0020FEF7A4FA502093
:10588000FEF7A1FA0020FEF79EFA0C20FEF79BFA25
:105890000020FEF798FA1720FEF795FA0020FEF791
:1058A00092FA9520FEF78FFA0020FEF78CFAF3208B
:1058B000FEF789FA0020FEF786FAE620FEF783FA63
:1058C0000020FEF780FAC520FEF774FA3220FEF7BA
:1058D0007AFA0020FEF777FA4420FEF774FA0020E7
:1058E000FEF771FA6520FEF76EFA0020FEF76BFAFC
:1058F0007620FEF768FA0020FEF765FA8820FEF7AA
:1059000062FA0020FEF75FFAC620FEF753FA202065
:10591000FEF759FA0020FEF756FA1720FEF753FA61
:105920000020FEF750FA0120FEF74DFA0020FEF7A6
:105930004AFAC720FEF73EFA0020FEF744FA00209C
:10594000FEF741FA0020FEF73EFA0020FEF73BFA90
:10595000C820FEF72FFA0020FEF735FA0020FEF7E8
:1059600032FA0020FEF72FFA0020FEF72CFAC920A9
:10597000FEF720FA0020FEF726FA0020FEF723FAB1
:105980000020FEF720FA0020FEF71DFA0020FEF7A7
:105990001AFA0020FEF717FA0020FEF714FA00208A
:1059A000FEF711FA0020FEF70EFA0020FEF70BFAC0
:1059B0000020FEF708FA0020FEF705FA0020FEF7A7
:1059C00002FA0020FEF7FFF90020FEF7FCF90020A4
:1059D000FEF7F9F9E020FEF7EDF91620FEF7F3F9EE
:1059E0000020FEF7F0F91C20FEF7EDF90020FEF78D
:1059F000EAF92120FEF7E7F90020FEF7E4F9362066
:105A0000FEF7E1F90020FEF7DEF94620FEF7DBF9AC
:105A10000020FEF7D8F95220FEF7D5F90020FEF756
:105A2000D2F96420FEF7CFF90020FEF7CCF97A20F6
:105A3000FEF7C9F90020FEF7C6F98B20FEF7C3F97F
:105A40000020FEF7C0F99920FEF7BDF90020FEF70F
:105A5000BAF9A820FEF7B7F90020FEF7B4F9B9208B
:105A6000FEF7B1F90020FEF7AEF9C420FEF7ABF95E
:105A70000020FEF7A8F9CA20FEF7A5F90020FEF7DE
:105A8000A2F9D220FEF79FF90020FEF79CF9D92059
:105A9000FEF799F90020FEF796F9E020FEF793F95A
:105AA0000020FEF790F9F320FEF78DF90020FEF7B5
:105AB0008AF9E120FEF77EF91620FEF784F900202E
:105AC000FEF781F91C20FEF77EF90020FEF77BF936
:105AD0002220FEF778F90020FEF775F93620FEF750
